:020000040800F2
:10000000A84A0020B1010008A1550008A355000826
:10001000A7550008AB550008AF55000800000000C8
:10002000000000000000000000000000B3550008C0
:10003000B555000800000000C7010008B7550008CA
:10004000CB010008CB010008CB010008CB01000860
:10005000CB010008CB010008CB010008CB01000850
:10006000CB010008CB010008CB010008CB01000840
:10007000CB010008CB010008CB010008CB01000830
:10008000CB010008CB010008CB010008CB01000820
:10009000BB550008CB010008CB010008CB010008CC
:1000A000CB010008CB010008CB010008CB01000800
:1000B000CB010008CB010008CB010008CB010008F0
:1000C000CB010008CB010008CB010008CB010008E0
:1000D000CB010008CB010008CB010008CB010008D0
:1000E000CB010008CB010008C3550008CB01000874
:1000F000CB010008CB010008CB010008CB010008B0
:10010000CB010008CB010008CB010008CB0100089F
:10011000CB010008CB010008CB010008CB0100088F
:10012000CB010008CB010008CB010008CB0100087F
:10013000CB010008CB010008CB010008CB0100086F
:10014000CB010008CB010008CB010008CB0100085F
:10015000CB010008CB010008CB010008CB0100084F
:10016000CB010008CB010008CB010008CB0100083F
:10017000CB010008CB010008CB010008CB0100082F
:10018000CB010008CB010008CB010008CB0100081F
:10019000CB010008CB010008DFF810D008F008FA06
:1001A0000048004743550008AFF30080A84A0020EC
:1001B0000648804706480047FEE7FEE7FEE7FEE701
:1001C000FEE7FEE7FEE7FEE7FEE7FEE7F5020008D2
:1001D0009901000800200021984AD26942F080521B
:1001E000964BDA61964A1168C1F30461954AD0686A
:1001F00020F47870891C29B11F2903D240EA4110EC
:10020000D06003E040F478708E4AD0608B4AD269A7
:1002100022F08052894BDA6170470EB500210291BD
:100220000191009100208549096841F48031834A99
:10023000116000BF81490968C1F3404101910099F3
:10024000491C00919DF8041019B90099B1F5004FAF
:10025000F0D17A490968C1F3404101919DF8041039
:1002600019B97949794A11600EBD7949086820F0B9
:10027000070040F004000860704949686F4A516007
:100280001146496841F4005151601146496841F4F2
:10029000A06151600020114648686E4908400290F4
:1002A000029941F480310291029902916A4A0299BD
:1002B00011430291614A029951601146096841F067
:1002C0008071116000BF5D49096801F0007100296B
:1002D000F9D000205949486820F0030040F002009E
:1002E000486000BF5549496801F00C010829F9D15F
:1002F00000BFB9E710B55948006840F4700057498D
:1003000008604E48006840F001004C49086008460B
:1003100040685349084049494860084600685149C7
:100320000840464908600846006820F480200860BC
:10033000084640684C490840404948604FF46050C6
:10034000C8624FF4615008634FF41F00886008468C
:10035000C06940F08050C8613A48C06840F0010070
:100360003849C8603548C06920F080503349C861B9
:100370003748006840F0900035490860FFF74DFFAE
:100380004FF00060354980390860384800683849C6
:10039000884201D0FFF71EFF10BD10B500210020DC
:1003A0000022264B5B6803F00C0121B1042906D022
:1003B000082932D107E0244B244C236031E0224B42
:1003C000224C23602DE01D4B5B682A4C03EA04009D
:1003D0001A4B5B6803F4803200F000631BB9022300
:1003E00003EB904004E04FF4F873C3EB9043581CC8
:1003F00022B9214B4343154C23600DE00F4B5B6842
:1004000003F4003323B11C4B4343104C236003E03F
:100410000D4B43430D4C236003E00B4B0B4C23600F
:1004200000BF00BF054B5B68C3F30313134CE15CD3
:10043000064B1B68CB40054C236010BD00100240EA
:10044000001800400070004000127A0000000020F8
:1004500000200240FFFFC0F70000040888ED00E024
:1004600000C0FFF8FFFFF6FEFFFF00F798F2FF1F46
:10047000424B524900003C0800093D0068890008D1
:1004800010B50446B4F5E06F0BD0B4F5C06F08D0DA
:10049000B4F5A06F05D0B4F5806F02D0B4F5407FFD
:1004A00000D104E06D225CA168A005F05EF87248FE
:1004B00020437249086010BD2DE9F0410446002533
:1004C00000270F26E07810B1E078012800D104E081
:1004D0007E2251A16AA005F048F86078102800DA61
:1004E00004E07F224CA1754805F03FF8A078102861
:1004F00000DA04E0802248A1714805F036F8E0787F
:1005000000B35E48006800F4E060C0F5E060050AF2
:10051000C5F10407EE40607800FA07F5A078304096
:1005200005432D01674822788554207800F01F018B
:100530000120884021784911890001F1E021C1F8AA
:10054000000109E0207800F01F01012088405E4989
:100550002278521141F82200BDE8F08170B50446BE
:100560000D46B4F1005F02D0B4F1006F00D104E099
:10057000A72229A155A004F0F8FF5C48854200D2CB
:1005800004E0A82224A15AA004F0EFFF5E4905EA86
:10059000010020433949091F086070BD70B5044649
:1005A0000D46102C03D0042C01D0022C00D104E005
:1005B000B92219A155A004F0D8FF0DB1012D00D129
:1005C00004E0BA2214A158A004F0CFFF3DB12B489B
:1005D000001D006820432949091D086006E02748DE
:1005E000001D0068A0432549091D086070BD10B5B5
:1005F0000446042C00D104E0CF2207A151A004F04E
:10060000B4FF042C07D14FF0E020006940F0040053
:100610004FF0E021086110BD2E2E5C6669726D7787
:100620006172655C6E3332673435785F7374645F12
:100630007065726970685F6472697665725C737206
:10064000635C6D6973632E630000000049535F4E65
:100650005649435F5052494F524954595F47524F90
:100660005550284E5649435F5072696F72697479CC
:1006700047726F75702900000000FA050CED00E06C
:1006800049535F46554E4354494F4E414C5F535476
:10069000415445284E5649435F496E6974537472FC
:1006A0007563742D3E4E5649435F4952514368610C
:1006B0006E6E656C436D642900000000CC8A0008F2
:1006C000888A000800E400E080E100E049535F4EC2
:1006D0005649435F56454354544142284E56494378
:1006E0005F5665637454616229000000FFFF0F00CC
:1006F00049535F4E5649435F4F4646534554284F32
:10070000666673657429000080FFFF1F49535F4EC2
:100710005649435F4C50284C6F77506F7765724D48
:100720006F6465290000000049535F46554E4354ED
:10073000494F4E414C5F535441544528436D642901
:100740000000000049535F5359535449434B5F43E2
:100750004C4B5F534F55524345285379735469634B
:100760006B5F434C4B536F7572636529000000004B
:100770000020CC490860091D0860091D0860091D9A
:100780000860C948C74914310860704770B504460D
:100790000025207910B12079042800D104E07322CB
:1007A000C2A1D1A004F0E1FE6079082805D06079EB
:1007B0000C2802D06079102800D104E07422BBA17B
:1007C000D4A004F0D2FE20686FF3150010B92068A1
:1007D00000B104E07522B5A1DAA004F0C6FEA0794C
:1007E00010B1A079012800D104E07622AFA1E0A0E9
:1007F00004F0BBFEAB4DA07990B328460068216899
:10080000884329460860081D006821688843291D1F
:100810000860207905442868216808432860A148B9
:1008200008300068216888439E4908310860081D27
:100830000068216888439B490C3108606079102862
:100840000FD1081F006821680843964908310860E5
:10085000081D00682168084392490C3108600EE0C9
:1008600007E0904D607905442868216808432860B6
:1008700005E020790544286821688843286070BD18
:100880000021016001710C214171002181717047CB
:1008900010B50446A00D800508B904B104E0B522E6
:1008A00082A1C0A004F061FE7E48103000682043A1
:1008B0007C491031086010BD70B504460025012C3C
:1008C00037D0022C35D0042C33D0082C31D0102C4A
:1008D0002FD0202C2DD0402C2BD0802C29D0B4F51B
:1008E000807F26D0B4F5007F23D0B4F5806F20D070
:1008F000B4F5006F1DD0B4F5805F1AD0B4F5005F79
:1009000017D0B4F5804F14D0B4F5004F11D0B4F522
:10091000803F0ED0B4F5003F0BD0B4F5802F08D047
:10092000B4F5002F05D0B4F5801F02D0B4F5001F38
:1009300000D104E0C5225DA1A0A004F016FE594834
:1009400014300068204008B1012500E00025284649
:1009500070BD10B50446A00D800508B904B104E0CF
:10096000DA2252A18FA004F000FE4E481430046039
:1009700010BD70B5044600250026012C37D0022C8E
:1009800035D0042C33D0082C31D0102C2FD0202C73
:100990002DD0402C2BD0802C29D0B4F5807F26D0B0
:1009A000B4F5007F23D0B4F5806F20D0B4F5006F8C
:1009B0001DD0B4F5805F1AD0B4F5005F17D0B4F540
:1009C000804F14D0B4F5004F11D0B4F5803F0ED055
:1009D000B4F5003F0BD0B4F5802F08D0B4F5002F4C
:1009E00005D0B4F5801F02D0B4F5001F00D104E09B
:1009F000EB222EA171A004F0B8FD2A48006800EA9D
:100A00000406284814300068204010B10EB10125BA
:100A100000E00025284670BD10B50446A00D8005F5
:100A200008B904B105E040F2011220A15DA004F074
:100A30009CFD1C481430046010BD10B50446ECB198
:100A4000012C1BD0022C19D0032C17D0042C15D04C
:100A5000052C13D0062C11D0072C0FD0082C0DD04C
:100A6000092C0BD00A2C09D00B2C07D00C2C05D04C
:100A70000D2C03D00E2C01D00F2C00D105E04FF42B
:100A800087720AA154A004F070FD0648183000686F
:100A900000F00F0003491831086008460068204341
:100AA000086010BD00040140FFFF3F002E2E5C6671
:100AB00069726D776172655C6E3332673435785F69
:100AC0007374645F7065726970685F64726976657B
:100AD000725C7372635C6E3332673435785F65784D
:100AE00074692E630000000049535F455854495F04
:100AF0004D4F444528455854495F496E69745374B5
:100B0000727563742D3E455854495F4D6F64652975
:100B10000000000049535F455854495F545249470B
:100B200047455228455854495F496E697453747259
:100B30007563742D3E455854495F54726967676503
:100B40007229000049535F455854495F4C494E454E
:100B500028455854495F496E6974537472756374BB
:100B60002D3E455854495F4C696E652900000000D0
:100B700049535F46554E4354494F4E414C5F535481
:100B800041544528455854495F496E6974537472FD
:100B90007563742D3E455854495F4C696E65436DCD
:100BA0006429000049535F455854495F4C494E45FC
:100BB00028455854495F4C696E65290049535F4781
:100BC00045545F455854495F4C494E452845585453
:100BD000495F4C696E65290049535F455854495F28
:100BE000545353454C5F4C494E4528455854495F32
:100BF000545353454C5F4C696E65290010B504464B
:100C0000F448844211D0F44884420ED0F348844220
:100C10000BD0F348844208D0F248844205D0F24811
:100C2000844202D0F148844200D104E07E22F0A147
:100C3000FEA004F09AFCE748844208D10121042078
:100C400001F07DFF0021042001F079FF46E0E24839
:100C5000844208D10121082001F071FF0021082001
:100C600001F06DFF3AE0DD48844208D101211020F7
:100C700001F065FF0021102001F061FF2EE0D8484F
:100C8000844208D10121202001F059FF00212020B9
:100C900001F055FF22E0D348844208D101214020D1
:100CA00001F04DFF0021402001F049FF16E0CE4841
:100CB000844208D10121802001F041FF00218020E1
:100CC00001F03DFF0AE0C948844207D101218015A7
:100CD00001F035FF0021A01501F031FF10BD10B566
:100CE0000121084601F02BFF0021012001F027FF20
:100CF00010BD2DE9F05F05460C464FF00009CA46CD
:100D000000260027B046B346B248854211D0B2480B
:100D100085420ED0B14885420BD0B148854208D0FB
:100D2000B048854205D0B048854202D0AF488542E0
:100D300000D104E0BE22AEA1BCA004F016FCE07815
:100D4000A0B1E078042811D0E07828280ED0E0780F
:100D500048280BD0E078142808D0E078102805D077
:100D6000E0781C2802D0E078182800D104E0BF22E7
:100D70009FA1B5A004F0F9FB002010B9208800B1B4
:100D800004E0C0229AA1BBA004F0EFFBE07800F0E1
:100D90000F09E07800F0100098B1A07840B1A07879
:100DA000022805D0A078012802D0A078032800D11D
:100DB00004E0C7228EA1B8A004F0D7FBA07840EAD7
:100DC0000909207838B3D5F8008000261FE00120FB
:100DD00000FA06F7208800EA070ABA4516D1B700DC
:100DE0000F2000FA07FB28EA0B0809FA07F040EA8F
:100DF0000808E078282803D10120B040686105E0A8
:100E0000E078482802D10120B0402861761C082EE5
:100E1000DDD3C5F800802088FF282BDDD5F80480BD
:100E2000002623E006F10800012101FA00F72088DE
:100E300000EA070ABA4518D1B7000F2000FA07FBED
:100E400028EA0B0809FA07F040EA0808E0782828A1
:100E500003D106F1080081406961E078482804D197
:100E600006F10800012181402961761C082ED9D3A2
:100E7000C5F80480BDE8F09F4FF6FF7101800121A5
:100E800081700421C170704770B505460C4600267C
:100E90005048854211D0504885420ED04F48854277
:100EA0000BD04F48854208D04E48854205D04E4869
:100EB000854202D04D48854200D105E040F229121A
:100EC0004BA15AA004F051FB012C25D0022C23D0B9
:100ED000042C21D0082C1FD0102C1DD0202C1BD06E
:100EE000402C19D0802C17D0B4F5807F14D0B4F5E5
:100EF000007F11D0B4F5806F0ED0B4F5006F0BD029
:100F0000B4F5805F08D0B4F5005F05D0B4F5804F2C
:100F100002D0B4F5004F00D105E04FF4957234A132
:100F200068A004F022FBA868204008B1012600E078
:100F30000026304670BD10B504462648844211D0C4
:100F4000254884420ED0254884420BD02448844250
:100F500008D02448844205D02348844202D0234844
:100F6000844200D105E040F23F1221A12FA004F0FD
:100F7000FCFAA06880B210BD70B505460C4600268C
:100F80001448854211D0144885420ED0134885423A
:100F90000BD01348854208D01248854205D012482C
:100FA000854202D01148854200D105E040F24F123F
:100FB0000FA11EA004F0D9FA012C09D0022C07D0F1
:100FC000042C05D0082C03D0102C01D0202C85E057
:100FD000A1E0000000080140000C014000100140A9
:100FE0000014014000180140001C01400020014095
:100FF0002E2E5C6669726D776172655C6E33326746
:101000003435785F7374645F7065726970685F64AB
:1010100072697665725C7372635C6E333267343505
:10102000785F6770696F2E630000000049535F4767
:1010300050494F5F414C4C5F5045524950482847FA
:1010400050494F782900000049535F4750494F5F8E
:101050004D4F4445284750494F5F496E697453745A
:10106000727563742D3E4750494F5F4D6F6465291B
:101070000000000049535F4750494F5F50494E28D8
:101080004750494F5F496E69745374727563742D8C
:101090003E50696E2900000049535F4750494F5F39
:1010A0005350454544284750494F5F496E69745332
:1010B00074727563742D3E4750494F5F5370656578
:1010C0006429000049535F4745545F4750494F5FCB
:1010D00050494E2850696E29000000001BD0402C5A
:1010E00019D0802C17D0B4F5807F14D0B4F5007FD0
:1010F00011D0B4F5806F0ED0B4F5006F0BD0B4F5FD
:10110000805F08D0B4F5005F05D0B4F5804F02D001
:10111000B4F5004F00D107E04FF4A872AFF23011E0
:10112000AFF2600004F021FAE868204008B101261F
:1011300000E00026304670BD10B50446FE488442EB
:1011400011D0FE4884420ED0FD4884420BD0FD48A9
:10115000844208D0FC48844205D0FC48844202D036
:10116000FB48844200D107E040F26512AFF28011E3
:10117000AFF2481004F0F9F9E06880B210BD70B524
:1011800004460D46EC48844211D0EC4884420ED00F
:10119000EB4884420BD0EB48844208D0EA488442B2
:1011A00005D0EA48844202D0E948844200D107E0F1
:1011B00040F27312AFF2C811AFF2901004F0D5F9FB
:1011C000002008B905B106E04FF4BA72AFF2E011A1
:1011D000E0A004F0CAF9256170BD70B504460D4663
:1011E000D548844211D0D54884420ED0D448844298
:1011F0000BD0D448844208D0D348844205D0D34889
:10120000844202D0D248844200D107E040F27B12EF
:10121000AFF22421AFF2EC1004F0A7F9256170BD04
:1012200070B504460D46C448844211D0C348844278
:101230000ED0C34884420BD0C248844208D0C24872
:10124000844205D0C148844202D0C148844200D1C2
:1012500007E04FF4C572AFF26821AFF2302004F01E
:1012600084F9002008B905B106E040F28B12AFF214
:101270008021B8A004F079F9656170BD70B50546AC
:101280000C461646AC48854211D0AC4885420ED07B
:10129000AB4885420BD0AB48854208D0AA4885426E
:1012A00005D0AA48854202D0A948854200D107E06E
:1012B00040F29D12AFF2C821AFF2902004F055F930
:1012C000012C25D0022C23D0042C21D0082C1FD097
:1012D000102C1DD0202C1BD0402C19D0802C17D0C6
:1012E000B4F5807F14D0B4F5007F11D0B4F5806FD1
:1012F0000ED0B4F5006F0BD0B4F5805F08D0B4F514
:10130000005F05D0B4F5804F02D0B4F5004F00D196
:1013100007E04FF4CF72AFF22831AFF2582004F05B
:1013200024F90EB1012E00D106E040F29F12AFF277
:1013300040318DA004F019F90EB12C6100E06C6110
:1013400070BD70B504460D467B48844211D07B4881
:1013500084420ED07A4884420BD07A48844208D026
:101360007948844205D07948844202D07848844242
:1013700000D107E040F2B312AFF28C31AFF254303B
:1013800004F0F3F8E56070BD70B504460D464FF407
:1013900080366948844211D0684884420ED068483B
:1013A00084420BD06748844208D06748844205D005
:1013B0006648844202D06648844200D107E040F289
:1013C000C312AFF2D431AFF29C3004F0CEF800205B
:1013D00008B905B106E04FF4E272AFF2EC315DA05E
:1013E00004F0C3F82E43A661A561A661A669A669AB
:1013F00070BD70B505460C4600263DB1012D05D0E7
:10140000022D03D0032D01D0042D00D106E040F2BF
:10141000DF12AFF224415BA004F0A7F8ECB1012C7D
:101420001BD0022C19D0032C17D0042C15D0052C5E
:1014300013D0062C11D0072C0FD0082C0DD0092C5E
:101440000BD00A2C09D00B2C07D00C2C05D00D2C5E
:1014500003D00E2C01D00F2C00D106E04FF4F07217
:10146000AFF2744152A004F080F8594806684FF674
:101470008070064046EA051626435548066070BD52
:1014800010B504460CB1012C00D106E04FF4F972FE
:10149000AFF2A4414FA004F068F85548C46110BDF4
:1014A0002DE9F04704460F464FF00008C2460026DB
:1014B000B1460025012C3DD0022CFCD0042CFAD0E2
:1014C000082CF8D04B488442F5D04A48203084425A
:1014D000F1D049488442EED0474880308442EAD077
:1014E00046488442E7D046488442E4D04548844296
:1014F000E1D045488442DED044488442DBD0B4F594
:10150000805FD8D0B4F5E91FD5D0B4F5EA1FD2D0AA
:10151000B4F5EB1FCFD0B4F5004FCCD03C4884429B
:10152000C9D0401C8442C6D0801C8442C3D0001D58
:1015300084426FE05AE1000000080140000C0140C5
:10154000001001400014014000180140001C01403F
:101550000020014049535F4750494F5F50494E2892
:1015600050696E290000000049535F4750494F5FA2
:101570004249545F4F504552415445284269744393
:101580006D64290049535F4750494F5F4556454EAA
:10159000544F55545F504F52545F534F555243452B
:1015A00028506F7274536F757263652900000000D4
:1015B00049535F4750494F5F50494E5F534F555213
:1015C00043452850696E536F7572636529000000AA
:1015D0000000014049535F46554E4354494F4E4128
:1015E0004C5F535441544528436D6429000000006A
:1015F00000002042100014004000160000011800F6
:10160000000218000003180000081A00000C1A005D
:10161000010020003FF44FAFFE48844286D0FE48D0
:101620008442F7D0FD488442F4D0FD488442F1D092
:10163000FC488442EED0FC488442EBD0001D84423A
:10164000E8D0FA488442E5D0F84810308442E1D02E
:10165000F7488442DED0F64880308442DAD0F5483C
:101660008442D7D0F4488442D4D0F4488442D1D0C4
:10167000F3488442CED0F3488442CBD0F24884422F
:10168000C8D0F2488442C5D0F1488442C2D0F14863
:101690008442BFD0F0488442BCD0401C8442B9D0C0
:1016A000401C8442B6D0ED488442B3D0001D844231
:1016B000B0D0EB488442ADD0EA488442AAD0E94891
:1016C00008308442A6D0E8488442A3D0E748844248
:1016D000A0D0E648103084429CD0E44820308442B8
:1016E00098D0E348844295D0E148403084427DD090
:1016F000DF488030844279D0DE48844276D0DE48AC
:10170000844273D0DD48844270D0DD4884426DD07D
:10171000DC4884426AD0DC48844267D0DB4884429B
:1017200064D0401C844261D0401C84425ED0D848C2
:1017300084425BD0001D844258D0001D844255D0A5
:10174000D448844252D0D348203084424ED0D2482C
:1017500084424BD0D0488030844247D0CF48844226
:1017600044D0CF48844241D0CE4884423ED0CE4877
:1017700084423BD0CD48844238D0CD48844235D0D5
:101780004FEAF03084427FD0CA4884427CD0CA48B5
:10179000844279D0401C844276D0801C844273D02D
:1017A000001D844270D0C54884426DD0C3482030AB
:1017B000844269D0C0483F30844265D0BE487F3003
:1017C000844261D0BC48FF3084425DD0BC48844232
:1017D0005AD090487030844256D0BA48844253D090
:1017E000B948844250D0B848403800E04CE08442C8
:1017F0004AD0B5486038844246D0B34870388442F5
:1018000042D0B148783884423ED0001F84423BD059
:10181000801E844238D0401E844235D0AB4884427A
:1018200032D0AB4884422FD0AA4884422CD0B4F1A5
:10183000102F29D04FEA7040844225D0A648844218
:1018400022D0A64884421FD0A54884421CD0A44878
:101850008038844218D0A248C038844214D0A048AE
:10186000E038844210D09E48F03884420CD09C4826
:10187000F838844208D0001F844205D0801E84427C
:1018800002D0401E844200D106E040F27722AFF63B
:10189000A00194A003F069FE0FB1012F00D107E071
:1018A0004FF41E72AFF6B801AFF2D82003F05DFE20
:1018B00004F08040B0F1804F02D19048066A11E0F8
:1018C00004F00050B0F1005F02D18C48466A09E094
:1018D00004F08050B0F1805F02D18848866A01E050
:1018E00086484668C4F303491FFA84F884482040B8
:1018F000B0F5401F08D126F070668048406820F09F
:1019000070607E4948603AE104F48010B0F5801FB1
:1019100016D104F40010B0F5001F05D1032000FA21
:1019200009F04FEA004A02E0032000FA09FA26EA29
:101930000A0604F0E040002801D146F070661EE17E
:1019400004F08070B0F1807F45D104F004000428D9
:1019500029D104F00070B0F1007F16D1C4F34050DB
:10196000000108FA00F086433FB16448456845F03D
:10197000010545F07065456001E16048456825F066
:10198000010545F070654560F9E0C4F34050000181
:1019900008FA00F086435948456825F0010545F0EE
:1019A00070654560EBE048F00400C4F34051090164
:1019B000884086433FB15148456845F0010545F0F0
:1019C00070654560DBE04D48456825F0010545F050
:1019D00070654560D3E004F08060B0F1806F15D190
:1019E00004F00800082812D104F00070B0F1007F64
:1019F0000ED1C4F34050000108FA00F0864327B12D
:101A00003E48456845F008057CE07FE0ACE093E0A7
:101A100084E00000100020000001300000023000CF
:101A2000000430000100004002001140200014407A
:101A300040001640000218400003184000041A40FD
:101A4000000C1A4000101C4000301C4000401E409A
:101A500000801E4000C01E400100304000002041B8
:101A600004002043000020440800204610003440B9
:101A700040003640000238400003384000043A403D
:101A8000000C3A4000403E4000C03E4001001020A3
:101A9000040012201000142040001620000118201D
:101AA000000218200003182000041A20000C1A203D
:101AB00000100020008000200100202010003420B1
:101AC00000022020800016008000201000800010FE
:101AD0000040001000200010000400100002001060
:101AE0000001001049535F4750494F5F52454D4137
:101AF0005028526D7050696E2900000000000140AE
:101B00000000307045F07065456038E06A4845680F
:101B100025F0080545F07065456030E0C4F340509D
:101B2000000108FA00F086436348456825F008057F
:101B300045F07065456022E048F00800C4F340516C
:101B40000901884086433FB15B48456845F0080578
:101B500045F07065456012E05748456825F0080576
:101B600045F0706545600AE0C4F34050000108FA92
:101B700000F0864304F0E04008B946F070662FB1EB
:101B8000C4F34050010108FA01F0064304F080401C
:101B9000B0F1804F02D14848066211E004F00050D5
:101BA000B0F1005F02D14448466209E004F0805081
:101BB000B0F1805F02D14048866201E03E48466055
:101BC000BDE8F08770B505460C4600265DB1012DD5
:101BD00009D0022D07D0032D05D0042D03D0052DEB
:101BE00001D0062D00D106E04FF44F72AFF6004150
:101BF00032A003F0BAFCECB1012C1BD0022C19D09E
:101C0000032C17D0042C15D0052C13D0062C11D082
:101C1000072C0FD0082C0DD0092C0BD00A2C09D082
:101C20000B2C07D00C2C05D00D2C03D00E2C01D082
:101C30000F2C00D107E040F23D32AFF64C41AFF23D
:101C4000906003F092FCA007010F0F2000FA01F64C
:101C500019480830A11050F82100B0431649083146
:101C6000A21041F822000846A11050F82100A10757
:101C7000090F05FA01F108430F490831A21041F894
:101C8000220070BD10B5044614B1B4F5000F00D1A8
:101C900006E040F24F32AFF6A84112A003F065FC17
:101CA000B4F5000F03D101201949086002E00020BB
:101CB0001749086010BD00000000014049535F470C
:101CC00050494F5F455854495F504F52545F534FEE
:101CD0005552434528506F7274536F75726365296E
:101CE0000000000049535F4750494F5F4554485F2B
:101CF0004D454449415F494E54455246414345286C
:101D00004554485F436F6E66696753656C290000F0
:101D1000DC002042F748006840F00100F549086007
:101D200008464068F4490840F2494860084600689F
:101D3000F2490840EF4908600846006820F4802016
:101D4000086008464068EE490840EA4948604FF498
:101D50006050C8624FF4615008634FF41F00886000
:101D6000704710B504462CB1B4F5803F02D0B4F5ED
:101D7000802F00D104E0F622E2A1F0A003F0F5FBF1
:101D8000DC48006820F48030DA49086008460068C2
:101D900020F480200860B4F5803F03D0B4F5802F94
:101DA0000ED106E0D348006840F48030D149086085
:101DB00007E0D048006840F4A020CE49086000E069
:101DC00000BF00BF10BD2DE9F041044600250026EC
:101DD0000027212C1DD0312C1BD0392C19D0412C9F
:101DE00017D0612C15D0732C13D0742C11D0752CF6
:101DF0000FD0772C0DD0792C0BD07A2C09D07B2CDE
:101E000007D07C2C05D07D2C03D07E2C01D07F2CDC
:101E100000D105E040F2E342BAA1CDA003F0A5FB5A
:101E20006511012D02D1B348066806E0022D02D1EA
:101E3000B048066A01E0AF48466A04F01F05012079
:101E4000A840304008B1012700E000273846BDE82F
:101E5000F08138B5002000900024002500BF31201B
:101E6000FFF7B1FF05460098401C00900098B0F5C0
:101E7000004F01D0002DF2D03120FFF7A4FF08B1B0
:101E8000012400E00024204638BD70B5044600253A
:101E90001F2C00DC05E040F235129AA1B2A003F03D
:101EA00064FB9448056825F0F80545EAC40505601B
:101EB00070BD10B504460CB1012C00D105E040F214
:101EC000471290A1B2A003F050FBB848046010BDC7
:101ED00070B505460C4600262DB1B5F5803F02D001
:101EE000B5F5403F00D105E04FF4AE7285A1B0A03A
:101EF00003F03BFB002C59D0B4F5802F56D0B4F53D
:101F0000002F53D0B4F5402F50D0B4F5801F4DD0E2
:101F1000B4F5A01F4AD0B4F5C01F47D0B4F5E01FF8
:101F200044D0B4F5001F41D0B4F5101F3ED0B4F535
:101F3000201F3BD0B4F5301F38D0B4F5401F35D04A
:101F4000B4F5501F32D0B4F5601F2FD0B4F1006F3C
:101F50002CD09F48844229D09E48844226D09E4857
:101F6000844223D0B4F1016F20D09C4884421DD01C
:101F70009B4884421AD09B48844217D0B4F1026F28
:101F800014D09948844211D0984884420ED0984881
:101F900084420BD0B4F1036F08D09648844205D038
:101FA0009548844202D09548844200D105E040F231
:101FB0005D1254A192A003F0D8FA4E4846689748A3
:101FC000064045EA040006434A48466070BD10B525
:101FD00004460CB1012C00D105E04FF4B87249A1C0
:101FE0006BA003F0C2FA7148046610BD70B50446D8
:101FF00000251CB1012C01D0022C00D105E040F2DB
:10200000811240A186A003F0B0FA3A48456825F055
:1020100003052543456070BD3648406800F00C005C
:10202000704770B5044600257CB1802C0DD0902CF3
:102030000BD0A02C09D0B02C07D0C02C05D0D02CB0
:1020400003D0E02C01D0F02C00D105E040F2AB121F
:102050002CA17CA003F089FA2648456825F0F005FC
:102060002543456070BD70B5044600255CB1B4F5EC
:10207000806F08D0B4F5A06F05D0B4F5C06F02D062
:10208000B4F5E06F00D105E04FF4E2721DA175A038
:1020900003F06BFA1748456825F4E0652543456071
:1020A00070BD70B5044600255CB1B4F5806F08D0F2
:1020B000B4F5A06F05D0B4F5C06F02D0B4F5E06FF1
:1020C00000D105E040F2DD120EA166A003F04DFA4A
:1020D0000848456825F4605545EAC405456070BD6B
:1020E00070B504460D4604F0E00008B904B1CEE036
:1020F000C6E000000010024000C0FFF8FFFFF6FE3F
:10210000FFFF00F72E2E5C6669726D776172655C69
:102110006E3332673435785F7374645F70657269EB
:1021200070685F6472697665725C7372635C6E334B
:1021300032673435785F7263632E630049535F52B0
:1021400043435F485345285243435F485345290062
:1021500049535F5243435F464C4147285243435FD4
:10216000464C41472900000049535F5243435F43B7
:10217000414C49425F56414C5545284853494361BB
:102180006C6962726174696F6E56616C7565290065
:1021900049535F46554E4354494F4E414C5F53544B
:1021A00041544528436D642900000000000042426C
:1021B00049535F5243435F504C4C5F535243285244
:1021C00043435F504C4C536F7572636529000000A8
:1021D000000004080000080800000C0800001408B3
:1021E0000000180800001C0800002408000028084F
:1021F00000002C08000034080000380800003C08EB
:1022000049535F5243435F504C4C5F4D554C2852ED
:1022100043435F504C4C4D756C290000FFFFC0F7E5
:1022200049535F5243435F535953434C4B5F53529F
:1022300043285243435F535953434C4B536F75727A
:102240006365290049535F5243435F535953434CDD
:102250004B5F444956285243435F535953434C4BB9
:102260002900000049535F5243435F48434C4B5F92
:10227000444956285243435F48434C4B29000000D1
:102280004FF4FC72AFF28411FDA003F06EF90DB1B2
:10229000012D00D107E040F2F912AFF29811AFF230
:1022A000101003F062F92DB1FA48407A2043F94941
:1022B000487204E0F748407AA043F649487270BD7E
:1022C00010B504462CB1012C03D0022C01D0032CF4
:1022D00000D106E040F21322AFF2D811EEA003F0D5
:1022E00044F9F64804606008F449D839C1F8DC00C4
:1022F00010BD70B50446002514B1B4F1005F00D1E3
:1023000006E04FF40972AFF20421EDA003F02DF9BD
:10231000E048C56A25F000552543C56270BD70B51B
:1023200004460025F4B3B4F1807F5BD0B4F1007FA4
:1023300058D0B4F1407F55D0B4F1806F52D0B4F191
:10234000A06F4FD0B4F1C06F4CD0B4F1E06F49D062
:10235000B4F1006F46D0B4F1106F43D0B4F1206FE8
:1023600040D0B4F1306F3DD0B4F1406F3AD0B4F109
:10237000506F37D0B4F1606F34D0B4F1706F31D09A
:10238000B4F1805F2ED0B4F1885F2BD0B4F1905FB0
:1023900028D0B4F1985F25D0B4F1A05F22D0B4F179
:1023A000A85F00E01EE01DD0B4F1B05F1AD0B4F118
:1023B000B85F17D0B4F1C05F14D0B4F1C85F11D0CA
:1023C000B4F1D05F0ED0B4F1D85F0BD0B4F1E05FC0
:1023D00008D0B4F1E85F05D0B4F1F05F02D0B4F1F9
:1023E000F85F00D106E040F23F22AFF2E821BEA044
:1023F00003F0BBF8A748C56A25F0F8552543C56228
:1024000070BD70B506460C46002516B1B6F5806F56
:1024100000D106E040F25F22AFF21831BCA003F019
:10242000A4F8E4B3B4F5006F5BD0B4F5805F58D086
:10243000B4F5C05F55D0B4F5005F52D0B4F5205F5D
:102440004FD0B4F5405F4CD0B4F5605F49D0B4F5DF
:10245000804F46D0B4F5904F43D0B4F5A04F40D054
:10246000B4F5B04F3DD0B4F5C04F3AD0B4F5D04F2D
:1024700037D0B4F5E04F34D0B4F5F04F31D0B4F5E7
:10248000004F2ED0B4F5084F2BD0B4F5104F28D004
:10249000B4F5184F25D0B4F5204F22D000E020E04D
:1024A000B4F5284F1DD0B4F5304F1AD0B4F5384FDD
:1024B00017D0B4F5404F14D0B4F5484F11D0B4F54F
:1024C000504F0ED0B4F5584F0BD0B4F5604F08D034
:1024D000B4F5684F05D0B4F5704F02D0B4F5784F1D
:1024E00000D106E04FF41872AFF2E83192A003F089
:1024F0003CF86848C56A25F4806525F4784535437D
:102500002543C56270BD70B504460E460025B4F57E
:10251000807F2BD0B4F5887F28D0B4F5907F25D06C
:10252000B4F5987F22D0B4F5A07F1FD0B4F5A87F72
:102530001CD0B4F5B07F19D0B4F5B87F16D0B4F57F
:10254000C07F13D0B4F5C87F10D0B4F5D07F0DD0C4
:10255000B4F5D87F0AD0B4F5E04F07D0B4F5B87F12
:1025600004D004F4E070B0F5E07F00D106E040F262
:102570008B22AFF270417AA002F0F7FF0EB1012E6C
:1025800000D107E04FF42372AFF28841AFF2004070
:1025900002F0EBFF3F48C56A25F4F8750EB12543FC
:1025A00002E0254325F480753A48C56270BD70B5D8
:1025B0000446002594B1012C10D0022C0ED0032C1F
:1025C0000CD0042C0AD0052C08D0062C06D0072CE1
:1025D00004D0082C02D004F0080000B106E040F25C
:1025E000B322AFF2E04169A002F0BFFF2948C56AFB
:1025F00025F00F052543C56270BD70B506460C4633
:10260000002516B1B6F5003F00D106E040F2D32216
:10261000AFF2105167A002F0A8FFB4F5006F2CD004
:10262000B4F5C05F29D0B4F5205F26D0B4F5605F63
:1026300023D0B4F5904F20D0B4F5B04F1DD0B4F5F1
:10264000D04F1AD0B4F5F04F17D0B4F5084F14D0CE
:10265000B4F5184F11D0B4F5284F0ED0B4F5384F5B
:102660000BD0B4F5484F08D0B4F5584F05D0B4F5A9
:10267000684F02D0B4F5784F00D1B8E0B0E0000068
:1026800049535F5243435F494E5428526363496E36
:10269000742900000010024049535F5243435F55C4
:1026A0005342434C4B5F535243285243435F55536D
:1026B00042434C4B536F757263652900D800424208
:1026C00049535F5243435F54494D3138434C4B5358
:1026D0005243285243435F54494D3138434C4B5386
:1026E0006F7572636529000049535F5243435F521F
:1026F0004E4743434C4B505245285243435F524E42
:102700004743434C4B5072657363616C657229009B
:1027100049535F5243435F414443314D434C4B5314
:102720005243285243435F414443314D434C4B5342
:102730006F7572636529000049535F5243435F41DF
:102740004443314D434C4B505245285243435F4123
:102750004443314D5072657363616C6572290000AA
:1027600049535F5243435F414443504C4C434C4BAD
:10277000505245285243435F414443504C4C434CD4
:102780004B5072657363616C6572290049535F52E7
:1027900043435F41444348434C4B505245285243C6
:1027A000435F41444348434C4B5072657363616CD3
:1027B0006572290049535F5243435F54524E47317B
:1027C0004D434C4B5F535243285243435F54524E48
:1027D00047314D434C4B536F7572636529000000C0
:1027E0004FF43572AFF2E461EDA002F0BEFEF7489F
:1027F000056B25F4003525F47845354325430563FD
:1028000070BD10B504460CB1012C00D107E040F2B8
:10281000ED22AFF21071AFF2886002F0A6FE34B183
:10282000EA48006B40F48020E849086305E0E74887
:10283000006B20F48020E549086310BD10B5044604
:102840001CB1012C01D0042C00D106E04FF44172E0
:10285000AFF25071DEA002F088FE0020DB4920318B
:102860000870DA4981F82000012C02D0042C0AD12A
:1028700004E00120D5492031087005E00520D34946
:102880002031087000E000BF00BF10BD10B5044645
:102890000CB1012C00D107E04FF44972AFF29C71EA
:1028A000AFF2147002F061FECE48046010BD10B5A6
:1028B0000446B4F5807F05D0B4F5007F02D0B4F5AE
:1028C000407F00D106E04FF44D72AFF2C871C6A050
:1028D00002F04BFEBD48006A20F44070BB4908621C
:1028E0000846006A2043086210BD10B504460CB1CA
:1028F000012C00D107E040F24532AFF2F871AFF29F
:10290000707002F032FEB7484438046010BDF0B574
:10291000002100BF002200250024AC4E7668BB4F8A
:1029200006EA0702A94E766806F4803502F00066D2
:102930001EB9022606EB924204E04FF4F876C6EB8D
:102940009246721C1DB9B24E02FB06F30BE09F4E7D
:10295000766806F400361EB1AD4E02FB06F302E0C7
:10296000AC4E02FB06F3994E766806F00C0121B1DD
:10297000042905D0082908D105E0A64E066007E025
:10298000A44E066004E0036002E0A24E066000BFB1
:1029900000BF8E4E766806F0F00109099E4E745C09
:1029A0000668E6404660894E766806F4E061090AEA
:1029B000994E745C4668E6408660844E766806F4FC
:1029C0006051C90A944E745C4668E640C6607F4E0A
:1029D000F66A06F00F01914E745C4668B6FBF4F699
:1029E00046617A4EF66A06F4F871090901F00F069D
:1029F0008B4F37F81640B3FBF4F60661F0BD70B5A7
:102A000004460D468748204008B904B106E040F26C
:102A1000C232AFF6101184A002F0A7FD0DB1012D56
:102A200000D107E040F2C332AFF62811AFF6A000A4
:102A300002F09BFD2DB16548406920436349486120
:102A400004E062484069A0436049486170BD70B5C8
:102A500004460D467D48204008B904B106E040F226
:102A6000DF32AFF660117AA002F07FFD0DB1012DCB
:102A700000D107E04FF47872AFF67811AFF6F000AE
:102A800002F073FD2DB15148806920434F498861A0
:102A900004E04E488069A0434C49886170BD70B520
:102AA00004460D467348204008B904B106E040F2E0
:102AB000FE32AFF6B01170A002F057FD0DB1012D3E
:102AC00000D107E040F2FF32AFF6C811AFF6401078
:102AD00002F04BFD2DB13D48C06920433B49C86120
:102AE00004E03A48C069A0433849C86170BD70B578
:102AF00004460D464B48204008B904B106E040F2B8
:102B00001B42AFF6002148A002F02FFD0DB1012DB0
:102B100000D107E040F21C42AFF61821AFF690104A
:102B200002F023FD2DB12948806A2043274988629D
:102B300004E02648806AA0432449886270BD70B5CD
:102B400004460D464148204008B904B106E040F271
:102B50003742AFF650213EA002F007FD0DB1012D26
:102B600000D107E04FF48762AFF66821AFF6E010BE
:102B700002F0FBFC2DB11548C06820431349C86022
:102B800004E01248C068A0431049C86070BD70B529
:102B900004460D463748204008B904B186E07DE080
:102BA00049535F5243435F54524E47314D434C4B60
:102BB000505245285243435F54524E47314D507254
:102BC000657363616C6572290000000000100240AB
:102BD00049535F5243435F4C5345285243435F4C34
:102BE000534529008004424249535F5243435F5298
:102BF0005443434C4B5F535243285243435F525418
:102C000043434C4B536F75726365290000003C08C9
:102C100000093D0000127A007889000888890008C0
:102C200098890008A802FCFF49535F5243435F4163
:102C300048425F504552495048285243435F4148FB
:102C40004250657269706829000000000286E0FF4A
:102C500049535F5243435F415042325F50455249AE
:102C60005048285243435F41504232506572697068
:102C7000682900000033014149535F5243435F41DB
:102C80005042315F504552495048285243435F41BA
:102C900050423150657269706829000040F2554217
:102CA000AFF6A031AFF2300002F05FFC0DB1012DA4
:102CB00000D107E040F25642AFF6B831AFF63030FF
:102CC00002F053FC2DB18848006920438649086111
:102CD00004E085480069A0438349086170BD10B5D0
:102CE00004460CB1012C00D107E040F26942AFF676
:102CF000EC31AFF6643002F038FC34B17A48006B46
:102D000040F040007849086305E07748006B20F008
:102D100040007549086310BD10B504460CB1012C84
:102D200000D107E040F27C42AFF62841AFF6A03078
:102D300002F01BFC6D48046010BD10B504460CB1D8
:102D4000012C00D107E04FF49162AFF64841AFF695
:102D5000C03002F00AFC6648C46410BD70B5044679
:102D60000025B4F1005F26D0B4F1405F23D0B4F168
:102D7000804F20D0B4F1A04F1DD0B4F1C04F1AD075
:102D8000B4F1E04F17D0B4F1004F14D0B4F1104FAC
:102D900011D0B4F1204F0ED0B4F1304F0BD0B4F1BC
:102DA000404F08D0B4F1504F05D0B4F1604F02D07D
:102DB000B4F1704F00D106E040F29D42AFF6BC4145
:102DC0004CA002F0D2FB4848456825F070452543E9
:102DD000456070BD70B5044600253CB1052C05D09A
:102DE000042C03D0062C01D0072C00D106E040F2C1
:102DF000B942AFF6F0414AA002F0B7FB3A48456845
:102E000025F0E06545EA0465456070BD3648406AD6
:102E100040F08070344948620846406A20F0807073
:102E20004862704770B504460025012C09D0022C79
:102E300007D0042C05D0082C03D0102C01D0802CF6
:102E400000D106E040F22352AFF6485139A002F01B
:102E50008CFB25488068204008B1012500E0002552
:102E6000284670BD10B5044604F0600008B904B1EE
:102E700006E040F24452AFF6745134A002F075FB04
:102E80001948847210BD002117480168C1F3C300BE
:102E9000704701460020144A106820F0F80040EA0C
:102EA000C100106070472DE9F04104460D46002630
:102EB000B0460027012C02DD0120BDE8F081FFF7BC
:102EC000E2FF06460CB9771902E006F11000471937
:102ED0001F2F01D90220F0E707F0FF084046FFF757
:102EE000D8FF0020E9E70000001002404004424201
:102EF0000000424249535F5243435F4D434F504CA1
:102F00004C434C4B505245285243435F4D434F5026
:102F10004C4C434C4B5072657363616C6572290075
:102F200049535F5243435F4D434F285243435F4DE4
:102F3000434F290049535F5243435F4745545F491C
:102F40004E5428526363496E7429000049535F52FE
:102F500043435F434C525F494E5428526363496E6A
:102F60007429000010B50446ED48844211D0ED48A4
:102F700084420ED0EC4884420BD0EC48844208D006
:102F8000EB48844205D0EB48844202D0EA488442B0
:102F900000D104E08822E9A1F7A002F0E6FAE048B7
:102FA000844209D101218803FFF7C9FD00214FF4B4
:102FB0008040FFF7C4FD4CE0DA48844209D101218A
:102FC0004804FFF7E4FD00214FF40030FFF7DFFD78
:102FD0003FE0D548844209D101218804FFF7D7FD9D
:102FE00000214FF48020FFF7D2FD32E0CF48844229
:102FF00009D10121C804FFF7CAFD00214FF40020C8
:10300000FFF7C5FD25E0CA48844209D10121080522
:10301000FFF7BDFD00214FF48010FFF7B8FD18E069
:10302000C448844209D101214804FFF788FD0021EA
:103030004FF40030FFF783FD0BE0BF48844208D116
:1030400001218804FFF77BFD00214FF48020FFF76A
:1030500076FD10BD2DE9F04786B005460C460026EA
:10306000B24600BF00BF0027AD48854211D0AD4831
:1030700085420ED0AC4885420BD0AC48854208D082
:10308000AB48854205D0AB48854202D0AA4885426C
:1030900000D104E0C422A9A1B7A002F066FA20681A
:1030A00020B1BC492068884200D204E0C522A3A117
:1030B000B9A002F05AFAA08818B1A088B0F5805FD4
:1030C00000D104E0C6229DA1BFA002F04EFAE08824
:1030D00058B1E088B0F5805F07D0E088B0F5005FB8
:1030E00003D0E088B0F5405F00D104E0C72293A18F
:1030F000C2A002F03AFA208938B12089B0F5806F79
:1031000003D02089B0F5C06F00D104E0C8228BA1A4
:10311000C6A002F02AFA60894FF6F371084010B990
:10312000608900B104E0C92284A1CBA002F01DFA9D
:10313000A08958B1A089B0F5807F07D0A089B0F5EB
:10314000007F03D0A089B0F5407F00D104E0CA22FF
:103150007AA1CB4802F009FAA08970B17048854283
:1031600005D07048854202D06F48854200D104E006
:10317000CE2272A1C3A002F0F8F92F462E8A4CF697
:10318000FF700640E08806432E82AE894EF6F310AB
:103190000640A08821890843618908430643AE811F
:1031A000AE8A4FF6FF400640A0890643AE826846CD
:1031B000FFF7ADFB5A48874205D05E48874202D0F0
:1031C0005D48874202D1DDF80CA001E0DDF808A0DF
:1031D0000AEBCA0000EB0A1021688900B0FBF1F885
:1031E0006420B8FBF0F006013009642101FB108077
:1031F000322101EB00106421B0FBF1F90120B0EBAA
:10320000191F04D16420B8FBF0F0401C060109F03E
:103210000F0006432E8106B0BDE8F0874FF416512B
:10322000016000218180C18001810C214181002148
:103230008181704770B505460C46002638488542A6
:1032400005D03848854202D03748854200D105E094
:103250004FF4987239A18BA002F087F9208818B139
:103260002088B0F5006F00D105E040F2311233A1A3
:103270008BA002F07AF9608818B16088B0F5806F91
:1032800000D105E04FF499722CA191A002F06DF9E4
:10329000A08818B1A088B0F5007F00D105E040F209
:1032A000331226A196A002F060F9E08818B1E088F8
:1032B000B0F5807F00D105E04FF49A721FA19BA06A
:1032C00002F053F92E8A4FF2FF00064020886188F1
:1032D0000843A1880843E188084306432E8270BD55
:1032E0000021018041808180C180704770B5044613
:1032F0000D460B48844211D00A4884420ED00A4839
:1033000084420BD00948844208D00948844205D041
:103310000848844202D00848844200D128E11FE1D5
:10332000003801400044004000480040004C00408C
:103330000050004000500140005401402E2E5C66B9
:1033400069726D776172655C6E3332673435785FB0
:103350007374645F7065726970685F6472697665C2
:10336000725C7372635C6E3332673435785F757389
:103370006172742E6300000049535F5553415254EB
:103380005F414C4C5F50455249504828555341527B
:103390005478290021AA440049535F55534152549F
:1033A0005F42415544524154452855534152545F60
:1033B000496E69745374727563742D3E426175640D
:1033C000526174652900000049535F5553415254BE
:1033D0005F574F52445F4C454E4754482855534120
:1033E00052545F496E69745374727563742D3E57FD
:1033F0006F72644C656E67746829000049535F55AD
:10340000534152545F53544F5042495453285553DB
:103410004152545F496E69745374727563742D3EE2
:1034200053746F70426974732900000049535F55EB
:10343000534152545F5041524954592855534152B7
:10344000545F496E69745374727563742D3E506194
:10345000726974792900000049535F5553415254F1
:103460005F4D4F44452855534152545F496E69742E
:103470005374727563742D3E4D6F646529000000AE
:103480001C8B000849535F55534152545F3132330E
:103490005F504552495048285553415254782900AD
:1034A00049535F55534152545F434C4F434B28554A
:1034B000534152545F436C6F636B496E697453742C
:1034C000727563742D3E436C6F636B2900000000BE
:1034D00049535F55534152545F43504F4C28555305
:1034E0004152545F436C6F636B496E6974537472DD
:1034F0007563742D3E506F6C617269747929000098
:1035000049535F55534152545F43504841285553E6
:103510004152545F436C6F636B496E6974537472AC
:103520007563742D3E5068617365290049535F557A
:10353000534152545F4C41535442495428555341CE
:1035400052545F436C6F636B496E69745374727548
:1035500063742D3E4C61737442697429000000004D
:103560004FF4AF72AFF22C21AFF2F41001F0FDFF77
:103570000DB1012D00D106E040F25F12AFF24421FF
:10358000FEA001F0F2FF25B1A08940F40050A08117
:1035900004E0A0894DF6FF710840A08170BD2DE9BF
:1035A000F04704460D4617464FF00008C246C14694
:1035B0000026F948844211D0F84884420ED0F848D9
:1035C00084420BD0F748844208D0F748844205D0A3
:1035D000F648844202D0F648844200D107E04FF416
:1035E000C272AFF2A821AFF2702001F0BEFF282D09
:1035F00019D040F22770854215D040F226608542EE
:1036000011D040F2255085420DD040F22440854231
:1036100009D040F64600854205D040F66A10854242
:1036200001D0602D00D106E040F28512AFF2F42106
:10363000E0A001F09AFF0FB1012F00D106E04FF496
:10364000C372AFF20831CDA001F08FFF40F66A10CF
:10365000854211D1D048844205D0D048844202D05E
:10366000CF48844200D107E04FF4C572AFF2343145
:10367000AFF2F01001F079FF2646C5F3421805F0CD
:103680001F0A012000FA0AF9B8F1010F01D10C3626
:1036900005E0B8F1020F01D1103600E0143627B171
:1036A000306840EA0900306003E0306820EA090031
:1036B0003060BDE8F08770B504460D461646B64842
:1036C000844211D0B54884420ED0B54884420BD014
:1036D000B448844208D0B448844205D0B3488442F8
:1036E00002D0B348844200D107E040F2BB12AFF2EF
:1036F000B431AFF27C3001F038FF4FF63F70284014
:1037000008B905B106E04FF4DE72AFF2D031B0A0D7
:1037100001F02BFF0EB1012E00D106E040F2BD12E8
:10372000AFF2E83195A001F020FF1EB1A08A284336
:10373000A08202E0A08AA843A08270BD70B50446B2
:103740000D469548844211D0944884420ED0944846
:1037500084420BD09348844208D09348844205D0D9
:103760009248844202D09248844200D107E04FF44C
:10377000EB72AFF23841AFF2004001F0F6FE0F2DD0
:1037800000DC06E040F2D712AFF2504198A001F001
:10379000ECFE208A4FF6F07108402082208A2843F0
:1037A000208270BD70B504460D467B48844211D01E
:1037B0007A4884420ED07A4884420BD079488442B9
:1037C00008D07948844205D07848844202D07848AD
:1037D000844200D107E04FF4F672AFF2A041AFF29D
:1037E000684001F0C2FE15B1B5F5006F00D106E0EA
:1037F00040F2ED12AFF2BC4185A001F0B6FEA08907
:103800004FF2FF710840A081A0892843A08170BDBC
:1038100070B504460D466048844211D05F4884422A
:103820000ED05F4884420BD05E48844208D05E4888
:10383000844205D05D48844202D05D48844200D174
:1038400007E04FF4FF72AFF20C51AFF2D44001F039
:103850008CFE0DB1012D00D106E040F2FF12AFF257
:10386000245146A001F081FE25B1A08940F002005C
:10387000A08104E0A0894FF6FD710840A08170BDD1
:1038800070B504460D464448844211D043488442F2
:103890000ED0434884420BD04248844208D042486C
:1038A000844205D04148844202D04148844200D13C
:1038B00007E040F21A22AFF27C51AFF2445001F01F
:1038C00054FE0DB1202D00D106E040F21B22AFF2D4
:1038D000945158A001F049FE208A4FF6DF7108404C
:1038E0002082208A2843208270BD70B504460D4690
:1038F0002948844211D0294884420ED02848844265
:103900000BD02848844208D02748844205D0274855
:10391000844202D02648844200D107E04FF40B7263
:10392000AFF2E851AFF2B05001F01FFE0DB1012D22
:1039300000D106E040F22D22AFF200610FA001F0AD
:1039400014FE25B1208A40F48040208204E0208AC1
:103950004BF6FF710840208270BD70B504460D46DD
:103960000D48844208D00D48844205D00C4884425A
:1039700002D00C4884427DE086E0000049535F4657
:10398000554E4354494F4E414C5F53544154452882
:10399000436D6429000000000038014000440040ED
:1039A00000480040004C00400050004000500140E2
:1039B0000054014049535F55534152545F434647B9
:1039C0005F494E542855534152545F494E54290083
:1039D00049535F55534152545F444D41524551281C
:1039E00055534152545F444D4152657129000000C6
:1039F00049535F55534152545F41444452455353D8
:103A00002855534152545F416464722900000000FC
:103A100049535F55534152545F57414B45555028C8
:103A200055534152545F57616B6555704D6F6465D6
:103A30002900000049535F55534152545F4C494E91
:103A40005F425245414B5F4445544543545F4C45AA
:103A50004E4754482855534152545F4C494E427288
:103A600065616B4465746563744C656E6774682941
:103A70000000000008D0FE48844205D0FD48844282
:103A800002D0FD48844200D107E040F24522AFF267
:103A90005471AFF21C7001F068FDB5F5007F00DADB
:103AA00006E040F24622AFF26C71F4A001F05DFD39
:103AB000C5F30800A08070BD10B50446F4488442E8
:103AC00011D0F44884420ED0F34884420BD0F3481E
:103AD000844208D0E648844205D0E648844202D0B9
:103AE000E548844200D107E040F25622AFF2B471BB
:103AF000AFF27C7001F039FDA088C0F3080010BD62
:103B000010B50446E248844211D0E24884420ED007
:103B1000E14884420BD0E148844208D0D448844232
:103B200005D0D448844202D0D348844200D107E073
:103B300040F26522AFF2FC71AFF2C47001F015FDE6
:103B4000A08940F00100A08110BD70B504460D466B
:103B5000CF48844205D0CF48844202D0CE48844228
:103B600000D107E04FF41D72AFF63001AFF2EC6008
:103B700001F0FBFC208BC0B22083208B40EA0520A3
:103B8000208370BD70B504460D46C148844211D0F3
:103B9000C04884420ED0C04884420BD0BF48844203
:103BA00008D0B348844205D0B248844202D0B2481B
:103BB000844200D107E040F28722AFF68001AFF6E1
:103BC000480001F0D2FC208B00F47F402083208B42
:103BD0002843208370BD70B504460D46AC4884422E
:103BE00005D0AC48844202D0AB48844200D107E003
:103BF00040F29922AFF6BC01AFF2787001F0B5FC4B
:103C00000DB1012D00D107E040F29A22AFF6D401A8
:103C1000AFF2982001F0A9FC25B1A08A40F0200065
:103C2000A08204E0A08A4FF6DF710840A08270BD38
:103C300070B504460D469648844205D095488442A6
:103C400002D09548844200D107E040F2B122AFF69D
:103C50001411AFF2D07001F088FC0DB1012D00D12C
:103C600007E040F2B222AFF62C11AFF2F02001F0E3
:103C70007CFC25B1A08A40F01000A08204E0A08A5C
:103C80004FF6EF710840A08270BD70B504460D4636
:103C90007F48844211D07F4884420ED07E488442BF
:103CA0000BD07E48844208D07148844205D07148C8
:103CB000844202D07048844200D107E040F2CA2218
:103CC000AFF68811AFF6501001F04FFC0DB1012D89
:103CD00000D107E040F2CB22AFF6A011AFF2643082
:103CE00001F043FC25B1A08A40F00800A08204E066
:103CF000A08A4FF6F7710840A08270BD70B50446E7
:103D00000D466348844211D0624884420ED0624816
:103D100084420BD06148844208D05548844205D083
:103D20005448844202D05448844200D107E040F213
:103D3000E622AFF6F811AFF6C01001F016FC042D24
:103D400000D005B906E040F2E722AFF6102154A0FA
:103D500001F00BFCA08A4FF6FB710840A082A08AFC
:103D60002843A08270BD70B504460D464848844281
:103D700011D0484884420ED0474884420BD047486F
:103D8000844208D03A48844205D03A48844202D05E
:103D90003948844200D107E04FF43E72AFF6642107
:103DA000AFF62C2001F0E1FB0DB1012D00D107E0B1
:103DB00040F2F922AFF67C21AFF2404001F0D5FB92
:103DC00025B1A08A40F00200A08204E0A08A4FF64C
:103DD000FD710840A08270BD70B505460C460026F6
:103DE0002B48854211D02B4885420ED02A48854267
:103DF0000BD02A48854208D01D48854205D01D4871
:103E0000854202D01C48854200D107E040F21E32B4
:103E1000AFF6D821AFF6A02001F0A7FB012C13D0FC
:103E2000802C11D0402C0FD0202C0DD0102C0BD07A
:103E3000B4F5807F08D0B4F5007F05D0082C03D0FE
:103E4000042C01D0022C00D106E040F21F32AFF664
:103E500014311CA001F089FBB4F5007F4AD10C4855
:103E600085423ED00B4885423BD00B48854237E027
:103E700000500040005001400054014049535F553C
:103E8000534152545F4441544128446174612900B4
:103E9000003801400044004000480040004C004011
:103EA00049535F55534152545F495244415F4D4F0E
:103EB00044452855534152545F497244414D6F6403
:103EC0006529000049535F55534152545F464C41A8
:103ED000472855534152545F464C41472900000042
:103EE00000D107E040F22332AFF6B031AFF66C20DC
:103EF00001F03BFB2888204008B1012600E00026A5
:103F0000304670BD70B504460D469548844211D0C8
:103F1000944884420ED0944884420BD09348844203
:103F200008D09348844205D09248844202D09248F7
:103F3000844200D107E040F24D32AFF60041AFF6C7
:103F4000C83001F012FB4FF69F40284008B905B178
:103F500006E040F24E32AFF61C4188A001F005FBAE
:103F600005F40070B0F5007F11D17D48844205D082
:103F70007C48844202D07C48844200D107E040F271
:103F80005232AFF64841AFF6043001F0EEFAE843A2
:103F9000208070BD2DE9F04704460D46002700261D
:103FA000B046B1466E48844211D06E4884420ED06D
:103FB0006D4884420BD06D48844208D06C488442DE
:103FC00005D06C48844202D06B48844200D107E09F
:103FD0004FF45C72AFF69C41AFF6644001F0C5FA55
:103FE000282D20D040F2277085421CD040F2266058
:103FF000854218D040F22550854214D040F224402A
:10400000854210D040F6460085420CD040F66A103A
:10401000854208D0B5F5587F05D0B5F5187F02D098
:10402000B5F5B07F00D106E040F27132AFF6F44151
:104030005AA001F09AFA40F66A10854211D1484818
:10404000844205D04748844202D04748844200D188
:1040500007E040F27532AFF61C51AFF6D83001F0F0
:1040600084FAC5F3421805F01F06012000FA06F68F
:10407000B8F1010F02D1A089064007E0B8F1020FA4
:1040800002D1208A064001E0A08A06402F120120BA
:1040900000FA07F7208807401EB117B14FF0010959
:1040A00001E04FF000094846BDE8F0872DE9F041F6
:1040B00004460D46002600272948844211D029488D
:1040C00084420ED0284884420BD02848844208D02D
:1040D0002748844205D02748844202D0264884429B
:1040E00000D107E04FF46E72AFF6B051AFF67850E2
:1040F00001F03BFA40F2266085420BD040F2255099
:10410000854207D040F64600854203D040F66A104B
:10411000854200D106E040F2B932AFF6E05126A068
:1041200001F023FA40F66A10854211D10C4884420E
:1041300005D00C48844202D00B48844200D107E0ED
:1041400040F2BD32AFF60C61AFF6C84001F00DFA97
:104150002E120120B04087B2F8432080BDE8F081E4
:10416000003801400044004000480040004C00403E
:1041700000500040005001400054014049535F5539
:10418000534152545F434C4541525F464C4147288E
:1041900055534152545F464C4147290049535F559E
:1041A000534152545F4745545F494E54285553413B
:1041B00052545F494E54290049535F55534152545C
:1041C0005F434C525F494E542855534152545F4906
:1041D0004E54290020B10121B34A116191600AE0D7
:1041E000B149096921F00101AF4A1161114689689D
:1041F00021F001019160704718B10121AB4A1160B3
:1042000006E0AA49096821F00101A74AC2F80C1189
:10421000704710B501214804FEF769FC00214FF4F6
:104220000030FEF764FC10BD70B504460025E0695F
:1042300038B1E069B0F5800F03D0E069B0F5000F48
:1042400000D104E056229AA1A8A001F08EF9A0693D
:10425000B0F5803F03D3A069B0F5702F01D9A069F4
:1042600000B904E0572292A1ABA001F07EF9606989
:10427000B0F5804F01D0606900B904E058228CA1EC
:10428000AEA001F072F9206958B12069B0F5806FD5
:1042900007D02069B0F5006F03D02069B0F5406FFA
:1042A00000D104E0592282A1ADA001F05EF9E068DE
:1042B00018B1E068B0F5007F00D104E05A227CA17B
:1042C000B0A001F052F9A06818B1A068B0F5807FE5
:1042D00000D104E05B2276A1B4A001F046F9606849
:1042E00028B16068402802D06068802800D104E0CE
:1042F0005C226FA1B6A001F038F92068032803D32F
:1043000020681F2800D804E05D2269A1B9A001F04F
:104310002CF9606A10B1606A012800D104E05E22C5
:1043200063A1BDA001F021F9A06A10B1A06A022822
:1043300000D104E05F225EA1C1A001F016F9E06A9D
:10434000042801D0E06A00B904E0602258A1C6A0A8
:1043500001F00BF9A06C18B1A06CB0F5803F00D152
:1043600004E0612252A1CAA001F0FFF8606CFF28AE
:1043700000D804E062224EA1CEA001F0F6F8606EF3
:10438000B0F1804F01D0606E00B904E0642248A112
:10439000D14801F0EAF8206EB0F5003F01D0206E60
:1043A00000B904E0652242A1CCA001F0DEF8E06D86
:1043B000B0F5803F01D0E06D00B904E066223CA179
:1043C000D6A001F0D2F8A06DB0F5006F03D3A06DB8
:1043D000B0F5784F01D9A06D00B904E0672234A18F
:1043E000DEA001F0C2F8606D58B1606DB0F5807F5D
:1043F00007D0606DB0F5007F03D0606DB0F5407FF1
:1044000000D104E068222AA1E4A001F0AEF8206DFA
:10441000042802D3206D3C2801D9206D00B904E0A6
:10442000692223A1EBA001F0A0F8E06C28B1E06CB8
:10443000012802D0E06C022800D104E06A221CA10D
:10444000F3A001F092F8D4F8A40070B1D4F8A4005D
:10445000B0F1806F09D0D4F8A400B0F1006F04D09F
:10446000D4F8A400B0F1406F00D104E06C2210A198
:10447000F7A001F07AF8D4F8A000B0F5000F02D050
:10448000D4F8A00000B904E06D2209A1FBA001F05E
:104490006CF8D4F89C00B0F5800F02D0D4F89C00E2
:1044A00000B909E202E20000001000A00C1100A017
:1044B0002E2E5C6669726D776172655C6E33326751
:1044C0003435785F7374645F7065726970685F64B7
:1044D00072697665725C7372635C6E333267343511
:1044E000785F717370692E630000000049535F515B
:1044F0005350495F5350495F4652462851535049E3
:104500005F496E69745374727563742D3E535049DC
:104510005F4652462900000049535F515350495F9E
:1045200043465328515350495F496E69745374721E
:104530007563742D3E4346532900000049535F5173
:104540005350495F5353544528515350495F496E66
:1045500069745374727563742D3E53535445290026
:1045600049535F515350495F544D4F442851535064
:10457000495F496E69745374727563742D3E544D6E
:104580004F44290049535F515350495F5343504FA3
:104590004C28515350495F496E6974537472756366
:1045A000742D3E5343504F4C2900000049535F5136
:1045B0005350495F5343504828515350495F496E07
:1045C00069745374727563742D3E534350482900C7
:1045D00049535F515350495F465246285153504901
:1045E0005F496E69745374727563742D3E4652460A
:1045F0002900000049535F515350495F44465328F6
:10460000515350495F496E69745374727563742DC8
:104610003E4446532900000049535F515350495FBF
:104620004D574D4F4428515350495F496E6974535B
:1046300074727563742D3E4D574D4F442900000030
:1046400049535F515350495F4D435F44495228518C
:104650005350495F496E69745374727563742D3E8B
:104660004D435F444952290049535F515350495FBC
:104670004D48535F454E28515350495F496E697408
:104680005374727563742D3E4D48535F454E290037
:1046900049535F515350495F534553285153504933
:1046A0005F496E69745374727563742D3E5345533C
:1046B0002900000049535F515350495F5344434E12
:1046C00028515350495F496E69745374727563740D
:1046D0002D3E5344434E2900648B000849535F51DB
:1046E0005350495F454E485F494E53545F444452CE
:1046F0005F454E28515350495F496E697453747237
:104700007563742D3E454E48414E4345445F494EC6
:1047100053545F4444525F454E29000049535F5152
:104720005350495F454E485F5350495F4444525F80
:10473000454E28515350495F496E697453747275E0
:1047400063742D3E454E48414E4345445F535049A6
:104750005F4444525F454E290000000049535F51B9
:104760005350495F454E485F574149545F43594351
:104770004C455328515350495F496E6974537472C4
:104780007563742D3E454E48414E4345445F574145
:1047900049545F4359434C455329000049535F51E5
:1047A0005350495F454E485F494E53545F4C285122
:1047B0005350495F496E69745374727563742D3E2A
:1047C000454E48414E4345445F494E53545F4C2942
:1047D0000000000049535F515350495F454E485F08
:1047E000414444525F4C454E28515350495F496EF5
:1047F00069745374727563742D3E454E48414E433F
:1048000045445F414444525F4C454E29000000003E
:1048100049535F515350495F454E485F5452414E92
:10482000535F5459504528515350495F496E69743C
:104830005374727563742D3E454E48414E43454452
:104840005F5452414E535F545950452900000000B7
:1048500049535F515350495F5849505F4D424C286E
:10486000515350495F496E69745374727563742D66
:104870003E5849505F4D424C2900000049535F515A
:104880005350495F5849505F43545F454E28515338
:1048900050495F496E69745374727563742D3E5844
:1048A00049505F43545F454E290000006E22AFF22D
:1048B00000419CA000F059FED4F89800B0F5800F9C
:1048C00002D0D4F8980000B905E06F22AFF2204181
:1048D000A1A000F04AFED4F89400B0F5002F02D059
:1048E000D4F8940000B905E07022AFF23C41A8A0D2
:1048F00000F03BFED4F89000B0F5802F02D0D4F841
:10490000900000B905E07122AFF25C41ABA000F06D
:104910002CFED4F88C00B0F5005F04D3D4F88C00E2
:10492000B0F5783F02D9D4F88C0000B905E07222C6
:10493000AFF28441ADA000F018FED4F88800B0F5C5
:10494000805F02D0D4F8880000B905E07322AFF28E
:10495000A041B5A000F009FED4F8840070B1D4F8ED
:104960008400B0F5007F09D0D4F88400B0F5806FE2
:1049700004D0D4F88400B0F5C06F00D105E07422F3
:10498000AFF2D441B6A000F0F0FDD4F880001028BA
:1049900003D3D4F88000F02802D9D4F8800000B9FD
:1049A00005E07522AFF2F841B9A000F0DEFDE06F3E
:1049B00028B1E06F042802D0E06F082800D105E09C
:1049C0007622AFF21451BFA000F0CFFDA06F0128F6
:1049D00004D0A06F022801D0A06F00B905E07722B3
:1049E000AFF23451C5A000F0C0FDE06EB0F5803FDD
:1049F00000D205E07922AFF24851CBA000F0B5FD1E
:104A0000206FB0F5803F00D205E07A22AFF260510E
:104A1000D1A000F0AAFD606FB0F5803F00D205E0A4
:104A20007B22AFF27451D7A000F09FFDD4F8A8000C
:104A3000FF2800D805E07C22AFF28C51DCA000F00A
:104A400094FD206AB0F5803F00D205E07E22AFF2EF
:104A5000A051E2A000F089FD206BB0F5803F00D2AC
:104A600005E07F22AFF2B851E5A000F07EFD606B5B
:104A7000B0F5001F00D205E08022AFF2CC51EBA0D0
:104A800000F073FDA06B1F2800D805E08122AFF273
:104A9000E051EFA000F069FDE06B3F2800D805E091
:104AA0008222AFF2F451F3A000F05FFD206C3F28AA
:104AB00000D805E08322AFF20861F7A000F055FDB1
:104AC000A06EFF2800D805E08422AFF21C61FBA095
:104AD00000F04BFDE06918BBD4E90610084361699A
:104AE000084321690843E1680843A16808436168F5
:104AF0000843216840EA0105FA4805600025D4E929
:104B000009010843E16A40EA0105F648C56000254D
:104B1000D4E9111040EA0105F248F03005604DE299
:104B2000E2E1000049535F515350495F5849505FDB
:104B3000494E53545F454E28515350495F496E6961
:104B4000745374727563742D3E5849505F494E53C7
:104B5000545F454E2900000049535F515350495F4F
:104B6000494E53545F4444525F454E285153504977
:104B70005F496E69745374727563742D3E58495061
:104B80005F494E53545F4444525F454E2900000034
:104B900049535F515350495F4444525F454E285139
:104BA0005350495F496E69745374727563742D3E36
:104BB0005849505F4444525F454E290049535F5164
:104BC0005350495F5849505F4446535F484328510A
:104BD0005350495F496E69745374727563742D3E06
:104BE0005849505F4446535F4843290049535F5139
:104BF0005350495F5849505F574149545F435943A7
:104C00004C455328515350495F496E69745374722F
:104C10007563742D3E5849505F574149545F43595D
:104C2000434C45532900000049535F515350495F9D
:104C30005849505F4D445F4249545F454E28515397
:104C400050495F496E69745374727563742D3E5890
:104C500049505F4D445F424954535F454E2900001F
:104C600049535F515350495F5849505F494E53541F
:104C70005F4C28515350495F496E69745374727583
:104C800063742D3E5849505F494E53545F4C290080
:104C900049535F515350495F5849505F4144445212
:104CA0005F4C454E28515350495F496E69745374A7
:104CB000727563742D3E5849505F414444525F4CB5
:104CC000454E290049535F515350495F5849505F41
:104CD0005452414E535F5459504528515350495FE7
:104CE000496E69745374727563742D3E5849505FF0
:104CF0005452414E535F54595045290049535F5116
:104D00005350495F5849505F4652462851535049C5
:104D10005F496E69745374727563742D3E584950BF
:104D20005F4652462900000049535F515350495F86
:104D30005849505F4D4F444528515350495F496E83
:104D400069745374727563742D3E5849505F4D44B5
:104D50005F4249545329000049535F515350495F02
:104D60005849505F494E43525F544F432851535066
:104D7000495F496E69745374727563742D3E49546A
:104D80004F43290049535F515350495F5849505F81
:104D9000575241505F544F4328515350495F496E19
:104DA00069745374727563742D3E57544F432900D0
:104DB00049535F515350495F5849505F544F5554C0
:104DC00028515350495F496E697453747275637406
:104DD0002D3E58544F5554290000000049535F514F
:104DE0005350495F4E444628515350495F496E69BC
:104DF000745374727563742D3E4E4446290000004E
:104E000049535F515350495F434C4B5F44495628C7
:104E1000515350495F496E69745374727563742DB0
:104E20003E434C4B5F4449562900000049535F51B3
:104E30005350495F5458465428515350495F496E66
:104E400069745374727563742D3E54584654290026
:104E500049535F515350495F52584654285153505B
:104E6000495F496E69745374727563742D3E52586C
:104E70004654290049535F515350495F5458464E98
:104E800028515350495F496E697453747275637445
:104E90002D3E5458464E290049535F515350495FA7
:104EA0005258464E28515350495F496E69745374A5
:104EB000727563742D3E5258464E290049535F5116
:104EC0005350495F4444525F54584445285153500D
:104ED000495F496E69745374727563742D3E5458FA
:104EE00044452900001000A0E069B0F5800F03D010
:104EF000E069B0F5000F61D1D4E90610084361699B
:104F0000084321690843E1680843A16808436168D0
:104F10000843216840EA0105F74805600025D4E907
:104F200009010843E16A40EA0105F348C56000252C
:104F3000D4E9111040EA0105EF48F0300560002582
:104F4000D4E918100843E16D0843A16D0843616D71
:104F50000843216D0843E16C40EA0105E648C0F8CA
:104F6000F4500025D4F8A4007834A16A0843616A9B
:104F70000843216A0843E1690843A169084361695C
:104F8000084321690843E1680843A1680843616850
:104F9000084354F8781940EA0105D8480560D74914
:104FA0000C39E06E0860091D206F0860091D606FF4
:104FB0000860D149D4F8A800C1F81401CE49206A8C
:104FC0004860206B4861606B8861A06BC861E06BD2
:104FD0000862206C4862C9491039A06E086070BD33
:104FE00038B505460C46ADF8004018208DF8030092
:104FF00003208DF8020069462846FBF77AFE38BD8B
:10500000F8B506460C46154626B1012E4BD0022EA9
:1050100073D197E001211520FDF719FD0121480406
:10502000FDF7EDFC0021B648FCF73AFA1021B5482F
:10503000FFF7D6FF2021B348FFF7D2FF4021B14848
:10504000FFF7CEFF6CB18020ADF8000018208DF87E
:10505000030000208DF802006946AA48FBF749FECC
:1050600003E08021A748FFF7BBFF9DB13020ADF8DA
:10507000000010208DF8030003208DF8020069461F
:10508000A148FBF736FEA048006940F030009E4979
:10509000086107E010219C48FFF7A2FF20219A48F1
:1050A000FFF79EFF9BE001213120FDF7D0FC01219D
:1050B0004804FDF7A4FC01219148FCF7F1F94FF4F5
:1050C00080619148FFF78CFF4FF400618E48FFF735
:1050D00087FF4FF480518C48FFF782FF74B10120A5
:1050E000ADF8000018208DF8030000208DF80200B4
:1050F00069468648FBF7FDFD04E06FE00121834827
:10510000FFF76EFFADB10620ADF8000010208DF85E
:10511000030003208DF8020069467C48FBF7E9FD97
:105120007A481030006840F0060078491031086075
:1051300007E002217548FFF753FF04217348FFF78A
:105140004FFF4CE001218120FDF781FC0121480443
:10515000FDF755FC01216A481038FCF7A1F901213F
:105160006B48FFF73DFF02216948FFF739FF042133
:105170006748FFF735FF6CB10820ADF80000182034
:105180008DF8030000208DF8020069466048FBF7A7
:10519000B0FD03E008215E48FFF722FFADB13020EB
:1051A000ADF8000010208DF8030003208DF80200F8
:1051B00069465748FBF79DFD55481030006840F0A0
:1051C000300053491031086007E010215048FFF7C4
:1051D00007FF20214E48FFF703FF00E000BF00BF9C
:1051E000F8BD70B504460D460CB1012C00D106E0A7
:1051F00040F24F12AFF6485146A000F0B6F93F2DED
:1052000000DC06E04FF4A872AFF65C5148A000F055
:10521000ACF93CB138480565C06C40F00200364935
:10522000C86405E03448C06C20F002003249C8640C
:1052300070BD70B504460D460CB1012C00D106E0DE
:105240004FF4B272AFF6985132A000F08EF93F2DB4
:1052500000DC06E040F26512AFF6AC513DA000F074
:1052600084F93CB124484565C06C40F001002249F6
:10527000C86405E02048C06C20F001001E49C864E5
:1052800070BD014600221C48006B00EA01020AB111
:10529000012070470020FCE7022802D11649896BE3
:1052A00012E0082802D11449C96B0DE0042802D18C
:1052B0001149096C08E0202802D10F49496C03E02C
:1052C0007F2801D10C49896C7047012802D10B4914
:1052D0000831096870470848806A00F0010008B189
:1052E000012070470020FCE70348806A00F00200BC
:1052F00008B9012070473FE0001000A0081100A08D
:10530000300014400008014000100140001401402A
:10531000001C014049535F46554E4354494F4E418E
:105320004C5F535441544528436D642900000000EC
:1053300049535F515350495F444D4154444C5F437E
:1053400054524C285478446174614C6576656C29DC
:105350000000000049535F515350495F444D415292
:10536000444C5F4354524C285278446174614C65FC
:1053700076656C2900000000002070474F48806A65
:1053800000F00400042801D1012070470020FCE750
:105390004A48806A00F00800082801D101207047BF
:1053A0000020FCE74548806A00F01000102801D179
:1053B000012070470020FCE74048806A00F0400070
:1053C000402801D1012070470020FCE73B490866D6
:1053D00070473A48006E7047384860307047374829
:1053E000406A704700B5002106E0FFF7F2FF481C55
:1053F0000146C82800D303E0FFF7CAFF0028F4D114
:1054000000BF00BD00B50246002309E0FFF7C0FF62
:1054100018B1FFF7DEFF01C201E0002000BD5B1CF8
:105420008B42F3D30120F9E7F0B504460D46002383
:10543000002603E001CCFFF7C9FF5B1C9342F9D3C0
:1054400004E0701C0646C82800D303E0FFF7A0FF65
:105450000028F6D000BF002604E0701C0646C828CD
:1054600000D303E01548406A9042F6D300BF002302
:1054700003E0FFF7AEFF01C55B1C9342F9D3F0BD1B
:1054800030B504460B4600252046FFF79FFFFFF787
:10549000A0FF18607AB105E0681C0546C82801D352
:1054A000002030BDFFF774FF0028F5D0FFF791FF13
:1054B00018600120F5E70020F3E70000001000A0CD
:1054C00008B54FF40070ADF8000003208DF802001D
:1054D00018208DF8030069462D48FBF70AFC4FF4AD
:1054E0008060ADF8000004208DF80300694628486C
:1054F000FBF7FFFB08BD1FB501210520FDF7A7FA4B
:1055000001218803FDF7A3FAFFF7DAFF4FF4E1303A
:1055100000900020ADF80400ADF80600ADF80800DA
:10552000ADF80C000C20ADF80A0069461948FDF7EB
:1055300091FD01211748FDF7D9FE174803F094F8B3
:105540001FBD00F045F8002000F06AFFFFF7D3FF11
:1055500000F06BF800F051F802F0A6F900BF0F4818
:1055600000680528FBD100BFFEE700BFFEE770B56D
:1055700004460D46E1B20748FEF7EFF900BF80216F
:105580000448FEF729FC0028F9D0204670BD000031
:105590000008014000380140AC8B0008F4000020F6
:1055A000704700BFFEE700BFFEE700BFFEE700BF99
:1055B000FEE7704770477047704710B500F078F805
:1055C00010BD10B54FF48020FBF726FA10BD000087
:1055D0001CB54FF48020FBF71FFA4FF48020009099
:1055E00000208DF8040008208DF8050001208DF8BA
:1055F00006006846FBF7CAF81CBD10B50320FCF78F
:105600005FFE0121C805FDF74AFA10BD03202149BC
:10561000086070472048817A19B105211D4A116040
:1056200002E001211B4A1160704708B54FF4A060E9
:10563000FAF726FF14208DF8000001208DF80100F4
:1056400000208DF8020001208DF803006846FAF76B
:1056500033FF2A208DF8000000208DF80100012082
:105660008DF803006846FAF727FF08BD10B5044619
:105670002CB14FF480710948FBF7D2FD04E04FF4E0
:1056800080710648FBF77BFD10BD10B5002000F0CF
:10569000C7FE10BDF40000208C0A00200008014065
:1056A00010B500F092FA10BD10B500F03DFC10BD31
:1056B00010B529480068294908800846008800F488
:1056C000004027490988084008B102F013F923482F
:1056D000008800F4806022490988084030B14FF604
:1056E000FF301D4908601F49486880471B480088F3
:1056F00000F480501A490988084030B14EF6FF7016
:1057000015490860002000F0DCF91448008800F416
:10571000006013490988084060B11348007810B14F
:1057200000F080F902E0022000F0CBF94FF2FF70A8
:10573000094908600948008800F400700849098890
:10574000084040B14FF6FF50034908600748007811
:10575000401C0649087010BD445C00402000002039
:10576000E601002068000020F80000202200002050
:1057700010B500208C490968887200F031F90020CA
:105780008A4908604FF41E4089490880084600880D
:105790008649091F086000208649086010BD10B5C1
:1057A0000020854988728548C0797F490968487218
:1057B000002002F093FA4FF40071002002F0A8FAE2
:1057C0002021002002F0BDFA1821002002F077FC11
:1057D0007B4890F82C10002002F0B7FC58210020E4
:1057E00002F061FC002002F069FB002002F02AFBBD
:1057F0000021012002F08CFA9821012002F053FCD4
:105800002021012002F09DFA0021012002F0B7FAC8
:105810000021022002F07CFAD821022002F04FFC85
:10582000674890F82C10022002F08FFC4FF4405192
:10583000022002F0A4FA0021022002F082FA0020E5
:1058400001F0A3FF01205B4908605E485E490860E3
:1058500000205E49087010BD10B553480068807A7A
:1058600058B1052053490860012002F0E4FB0220F2
:1058700002F0C9FB00205549087010BD10B5524810
:1058800000685049884202D0022000F0DBF910BDC8
:10589000042048490860704770477047014629B99D
:1058A0000120414A12681082002070474848FCE7F6
:1058B00070B5054600243C480068007800F07F0081
:1058C000212811D1FE2D0FD137480068408858B9E2
:1058D00035480068808838B933480068C088012896
:1058E00002D1AFF2470401E0022070BD0CB90220E2
:1058F000FBE72D480068846100212B480068418245
:105900000020A0470020F0E710B5044626480068B4
:10591000007800F07F0021281AD1FF2C18D12248EE
:1059200000684088A0B920480068808880B91E4877
:105930000068C08860B9012002F07DFB022002F0FF
:1059400062FB20482049086000202049087010BDF3
:105950000220FCE70246002901DD02207047002AF0
:1059600001DD0220FAE70020F8E710B504461949E6
:10597000204601F000FC10BD10B504461649204633
:1059800001F0F9FB10BD70B5054607480068C47802
:10599000052C01DD002070BD104800EBC401284635
:1059A00001F0E9FBF7E70000DC010020445C004067
:1059B000E6010020F40000208C0A0020CA890008BB
:1059C00068000020555342435C0200200001002083
:1059D0002C010020BC000020C4000020CC000020CE
:1059E0000121684801600020674A10801046008845
:1059F000644A10600020121D10604FF4E050624AAB
:105A00001080104600885F4A106000207047012017
:105A10005C4908600020091D08600320091F086018
:105A20000020704710B50021564A126890B200BF9E
:105A300009E0564B03EB8102D2F8002C92B2544B92
:105A400043F82120491C0829F3D340F480604D4AD3
:105A5000106040F00100106020F00100106000BFF5
:105A6000484A121D126802F48062002AF8D04FF6EC
:105A7000FF32444B1B1D1A60002109E0444A52F8D2
:105A8000212092B2414C04EB8103C3F8002C491C45
:105A90000829F3D340F008003A4A1060126890B227
:105AA00040F00400374A106010BD3649096888B2DA
:105AB00020F00400334908604FF41E41314A116060
:105AC000704710B50446072C01D0324804703148A5
:105AD000007808284ED2DFE800F004111A202B3895
